{
  "_format": "hh-sol-artifact-1",
  "contractName": "MiniMich",
  "sourceName": "contracts/MiniMich.sol",
  "abi": [
    {
      "inputs": [
        {
          "internalType": "string",
          "name": "_mURI",
          "type": "string"
        }
      ],
      "stateMutability": "nonpayable",
      "type": "constructor"
    },
    {
      "anonymous": false,
      "inputs": [
        {
          "indexed": true,
          "internalType": "address",
          "name": "owner",
          "type": "address"
        },
        {
          "indexed": true,
          "internalType": "address",
          "name": "approved",
          "type": "address"
        },
        {
          "indexed": true,
          "internalType": "uint256",
          "name": "tokenId",
          "type": "uint256"
        }
      ],
      "name": "Approval",
      "type": "event"
    },
    {
      "anonymous": false,
      "inputs": [
        {
          "indexed": true,
          "internalType": "address",
          "name": "owner",
          "type": "address"
        },
        {
          "indexed": true,
          "internalType": "address",
          "name": "operator",
          "type": "address"
        },
        {
          "indexed": false,
          "internalType": "bool",
          "name": "approved",
          "type": "bool"
        }
      ],
      "name": "ApprovalForAll",
      "type": "event"
    },
    {
      "anonymous": false,
      "inputs": [
        {
          "indexed": true,
          "internalType": "address",
          "name": "previousOwner",
          "type": "address"
        },
        {
          "indexed": true,
          "internalType": "address",
          "name": "newOwner",
          "type": "address"
        }
      ],
      "name": "OwnershipTransferred",
      "type": "event"
    },
    {
      "anonymous": false,
      "inputs": [
        {
          "indexed": false,
          "internalType": "address",
          "name": "account",
          "type": "address"
        }
      ],
      "name": "Paused",
      "type": "event"
    },
    {
      "anonymous": false,
      "inputs": [
        {
          "indexed": true,
          "internalType": "address",
          "name": "from",
          "type": "address"
        },
        {
          "indexed": true,
          "internalType": "address",
          "name": "to",
          "type": "address"
        },
        {
          "indexed": true,
          "internalType": "uint256",
          "name": "tokenId",
          "type": "uint256"
        }
      ],
      "name": "Transfer",
      "type": "event"
    },
    {
      "anonymous": false,
      "inputs": [
        {
          "indexed": false,
          "internalType": "address",
          "name": "account",
          "type": "address"
        }
      ],
      "name": "Unpaused",
      "type": "event"
    },
    {
      "inputs": [],
      "name": "MAX_BATCH",
      "outputs": [
        {
          "internalType": "uint256",
          "name": "",
          "type": "uint256"
        }
      ],
      "stateMutability": "view",
      "type": "function"
    },
    {
      "inputs": [],
      "name": "MAX_NFT",
      "outputs": [
        {
          "internalType": "uint256",
          "name": "",
          "type": "uint256"
        }
      ],
      "stateMutability": "view",
      "type": "function"
    },
    {
      "inputs": [],
      "name": "MAX_PRESALE",
      "outputs": [
        {
          "internalType": "uint256",
          "name": "",
          "type": "uint256"
        }
      ],
      "stateMutability": "view",
      "type": "function"
    },
    {
      "inputs": [],
      "name": "MAX_PRESALE_MINT",
      "outputs": [
        {
          "internalType": "uint256",
          "name": "",
          "type": "uint256"
        }
      ],
      "stateMutability": "view",
      "type": "function"
    },
    {
      "inputs": [],
      "name": "MAX_RESERVE",
      "outputs": [
        {
          "internalType": "uint256",
          "name": "",
          "type": "uint256"
        }
      ],
      "stateMutability": "view",
      "type": "function"
    },
    {
      "inputs": [],
      "name": "PRESALE_COUNT",
      "outputs": [
        {
          "internalType": "uint256",
          "name": "",
          "type": "uint256"
        }
      ],
      "stateMutability": "view",
      "type": "function"
    },
    {
      "inputs": [],
      "name": "PRESALE_PRICE",
      "outputs": [
        {
          "internalType": "uint256",
          "name": "",
          "type": "uint256"
        }
      ],
      "stateMutability": "view",
      "type": "function"
    },
    {
      "inputs": [],
      "name": "PRICE",
      "outputs": [
        {
          "internalType": "uint256",
          "name": "",
          "type": "uint256"
        }
      ],
      "stateMutability": "view",
      "type": "function"
    },
    {
      "inputs": [],
      "name": "RESERVE_COUNT",
      "outputs": [
        {
          "internalType": "uint256",
          "name": "",
          "type": "uint256"
        }
      ],
      "stateMutability": "view",
      "type": "function"
    },
    {
      "inputs": [
        {
          "internalType": "address",
          "name": "to",
          "type": "address"
        },
        {
          "internalType": "uint256",
          "name": "tokenId",
          "type": "uint256"
        }
      ],
      "name": "approve",
      "outputs": [],
      "stateMutability": "nonpayable",
      "type": "function"
    },
    {
      "inputs": [
        {
          "internalType": "address",
          "name": "owner",
          "type": "address"
        }
      ],
      "name": "balanceOf",
      "outputs": [
        {
          "internalType": "uint256",
          "name": "",
          "type": "uint256"
        }
      ],
      "stateMutability": "view",
      "type": "function"
    },
    {
      "inputs": [
        {
          "internalType": "uint256",
          "name": "mintNum",
          "type": "uint256"
        }
      ],
      "name": "devMint",
      "outputs": [],
      "stateMutability": "nonpayable",
      "type": "function"
    },
    {
      "inputs": [],
      "name": "freezeAll",
      "outputs": [],
      "stateMutability": "nonpayable",
      "type": "function"
    },
    {
      "inputs": [],
      "name": "freezeURI",
      "outputs": [
        {
          "internalType": "bool",
          "name": "",
          "type": "bool"
        }
      ],
      "stateMutability": "view",
      "type": "function"
    },
    {
      "inputs": [
        {
          "internalType": "uint256",
          "name": "tokenId",
          "type": "uint256"
        }
      ],
      "name": "getApproved",
      "outputs": [
        {
          "internalType": "address",
          "name": "",
          "type": "address"
        }
      ],
      "stateMutability": "view",
      "type": "function"
    },
    {
      "inputs": [
        {
          "internalType": "uint256",
          "name": "tokenId",
          "type": "uint256"
        }
      ],
      "name": "getOwnershipData",
      "outputs": [
        {
          "components": [
            {
              "internalType": "address",
              "name": "addr",
              "type": "address"
            },
            {
              "internalType": "uint64",
              "name": "startTimestamp",
              "type": "uint64"
            }
          ],
          "internalType": "struct ERC721A.TokenOwnership",
          "name": "",
          "type": "tuple"
        }
      ],
      "stateMutability": "view",
      "type": "function"
    },
    {
      "inputs": [
        {
          "internalType": "address",
          "name": "owner",
          "type": "address"
        },
        {
          "internalType": "address",
          "name": "operator",
          "type": "address"
        }
      ],
      "name": "isApprovedForAll",
      "outputs": [
        {
          "internalType": "bool",
          "name": "",
          "type": "bool"
        }
      ],
      "stateMutability": "view",
      "type": "function"
    },
    {
      "inputs": [],
      "name": "name",
      "outputs": [
        {
          "internalType": "string",
          "name": "",
          "type": "string"
        }
      ],
      "stateMutability": "view",
      "type": "function"
    },
    {
      "inputs": [],
      "name": "nextOwnerToExplicitlySet",
      "outputs": [
        {
          "internalType": "uint256",
          "name": "",
          "type": "uint256"
        }
      ],
      "stateMutability": "view",
      "type": "function"
    },
    {
      "inputs": [
        {
          "internalType": "address",
          "name": "owner",
          "type": "address"
        }
      ],
      "name": "numberMinted",
      "outputs": [
        {
          "internalType": "uint256",
          "name": "",
          "type": "uint256"
        }
      ],
      "stateMutability": "view",
      "type": "function"
    },
    {
      "inputs": [],
      "name": "owner",
      "outputs": [
        {
          "internalType": "address",
          "name": "",
          "type": "address"
        }
      ],
      "stateMutability": "view",
      "type": "function"
    },
    {
      "inputs": [
        {
          "internalType": "uint256",
          "name": "tokenId",
          "type": "uint256"
        }
      ],
      "name": "ownerOf",
      "outputs": [
        {
          "internalType": "address",
          "name": "",
          "type": "address"
        }
      ],
      "stateMutability": "view",
      "type": "function"
    },
    {
      "inputs": [],
      "name": "pause",
      "outputs": [],
      "stateMutability": "nonpayable",
      "type": "function"
    },
    {
      "inputs": [],
      "name": "paused",
      "outputs": [
        {
          "internalType": "bool",
          "name": "",
          "type": "bool"
        }
      ],
      "stateMutability": "view",
      "type": "function"
    },
    {
      "inputs": [],
      "name": "preLiveToggle",
      "outputs": [
        {
          "internalType": "bool",
          "name": "",
          "type": "bool"
        }
      ],
      "stateMutability": "view",
      "type": "function"
    },
    {
      "inputs": [
        {
          "internalType": "uint32",
          "name": "mintNum",
          "type": "uint32"
        },
        {
          "internalType": "bytes32[]",
          "name": "merkleProof",
          "type": "bytes32[]"
        }
      ],
      "name": "preMint",
      "outputs": [],
      "stateMutability": "payable",
      "type": "function"
    },
    {
      "inputs": [
        {
          "internalType": "uint32",
          "name": "mintNum",
          "type": "uint32"
        }
      ],
      "name": "publicMint",
      "outputs": [],
      "stateMutability": "payable",
      "type": "function"
    },
    {
      "inputs": [],
      "name": "renounceOwnership",
      "outputs": [],
      "stateMutability": "nonpayable",
      "type": "function"
    },
    {
      "inputs": [
        {
          "internalType": "address[]",
          "name": "receivers",
          "type": "address[]"
        },
        {
          "internalType": "uint32",
          "name": "mintNum",
          "type": "uint32"
        }
      ],
      "name": "reserve",
      "outputs": [],
      "stateMutability": "nonpayable",
      "type": "function"
    },
    {
      "inputs": [
        {
          "internalType": "address",
          "name": "from",
          "type": "address"
        },
        {
          "internalType": "address",
          "name": "to",
          "type": "address"
        },
        {
          "internalType": "uint256",
          "name": "tokenId",
          "type": "uint256"
        }
      ],
      "name": "safeTransferFrom",
      "outputs": [],
      "stateMutability": "nonpayable",
      "type": "function"
    },
    {
      "inputs": [
        {
          "internalType": "address",
          "name": "from",
          "type": "address"
        },
        {
          "internalType": "address",
          "name": "to",
          "type": "address"
        },
        {
          "internalType": "uint256",
          "name": "tokenId",
          "type": "uint256"
        },
        {
          "internalType": "bytes",
          "name": "_data",
          "type": "bytes"
        }
      ],
      "name": "safeTransferFrom",
      "outputs": [],
      "stateMutability": "nonpayable",
      "type": "function"
    },
    {
      "inputs": [],
      "name": "saleLiveToggle",
      "outputs": [
        {
          "internalType": "bool",
          "name": "",
          "type": "bool"
        }
      ],
      "stateMutability": "view",
      "type": "function"
    },
    {
      "inputs": [
        {
          "internalType": "address",
          "name": "operator",
          "type": "address"
        },
        {
          "internalType": "bool",
          "name": "approved",
          "type": "bool"
        }
      ],
      "name": "setApprovalForAll",
      "outputs": [],
      "stateMutability": "nonpayable",
      "type": "function"
    },
    {
      "inputs": [
        {
          "internalType": "bytes32",
          "name": "_root",
          "type": "bytes32"
        }
      ],
      "name": "setMerkleRoot",
      "outputs": [],
      "stateMutability": "nonpayable",
      "type": "function"
    },
    {
      "inputs": [
        {
          "internalType": "string",
          "name": "_URI",
          "type": "string"
        }
      ],
      "name": "setMetaURI",
      "outputs": [],
      "stateMutability": "nonpayable",
      "type": "function"
    },
    {
      "inputs": [
        {
          "internalType": "bytes4",
          "name": "interfaceId",
          "type": "bytes4"
        }
      ],
      "name": "supportsInterface",
      "outputs": [
        {
          "internalType": "bool",
          "name": "",
          "type": "bool"
        }
      ],
      "stateMutability": "view",
      "type": "function"
    },
    {
      "inputs": [],
      "name": "symbol",
      "outputs": [
        {
          "internalType": "string",
          "name": "",
          "type": "string"
        }
      ],
      "stateMutability": "view",
      "type": "function"
    },
    {
      "inputs": [],
      "name": "tglLive",
      "outputs": [],
      "stateMutability": "nonpayable",
      "type": "function"
    },
    {
      "inputs": [],
      "name": "tglPresale",
      "outputs": [],
      "stateMutability": "nonpayable",
      "type": "function"
    },
    {
      "inputs": [
        {
          "internalType": "uint256",
          "name": "index",
          "type": "uint256"
        }
      ],
      "name": "tokenByIndex",
      "outputs": [
        {
          "internalType": "uint256",
          "name": "",
          "type": "uint256"
        }
      ],
      "stateMutability": "view",
      "type": "function"
    },
    {
      "inputs": [
        {
          "internalType": "address",
          "name": "owner",
          "type": "address"
        },
        {
          "internalType": "uint256",
          "name": "index",
          "type": "uint256"
        }
      ],
      "name": "tokenOfOwnerByIndex",
      "outputs": [
        {
          "internalType": "uint256",
          "name": "",
          "type": "uint256"
        }
      ],
      "stateMutability": "view",
      "type": "function"
    },
    {
      "inputs": [
        {
          "internalType": "uint256",
          "name": "tokenId",
          "type": "uint256"
        }
      ],
      "name": "tokenURI",
      "outputs": [
        {
          "internalType": "string",
          "name": "",
          "type": "string"
        }
      ],
      "stateMutability": "view",
      "type": "function"
    },
    {
      "inputs": [],
      "name": "totalSupply",
      "outputs": [
        {
          "internalType": "uint256",
          "name": "",
          "type": "uint256"
        }
      ],
      "stateMutability": "view",
      "type": "function"
    },
    {
      "inputs": [
        {
          "internalType": "address",
          "name": "from",
          "type": "address"
        },
        {
          "internalType": "address",
          "name": "to",
          "type": "address"
        },
        {
          "internalType": "uint256",
          "name": "tokenId",
          "type": "uint256"
        }
      ],
      "name": "transferFrom",
      "outputs": [],
      "stateMutability": "nonpayable",
      "type": "function"
    },
    {
      "inputs": [
        {
          "internalType": "address",
          "name": "newOwner",
          "type": "address"
        }
      ],
      "name": "transferOwnership",
      "outputs": [],
      "stateMutability": "nonpayable",
      "type": "function"
    },
    {
      "inputs": [],
      "name": "unpause",
      "outputs": [],
      "stateMutability": "nonpayable",
      "type": "function"
    },
    {
      "inputs": [
        {
          "internalType": "uint256",
          "name": "_price",
          "type": "uint256"
        },
        {
          "internalType": "uint32",
          "name": "_list",
          "type": "uint32"
        }
      ],
      "name": "updatePrice",
      "outputs": [],
      "stateMutability": "nonpayable",
      "type": "function"
    },
    {
      "inputs": [
        {
          "internalType": "uint256",
          "name": "_amt",
          "type": "uint256"
        }
      ],
      "name": "withdrawFunds",
      "outputs": [],
      "stateMutability": "nonpayable",
      "type": "function"
    }
  ],
  "bytecode": "0x60c06040526000805560006007556005600d556000600e556000600f5566470de4df820000601055662386f26fc1000060115573f580fc0f5ae3032171c781fbbbe73f54fe411c4b601260006101000a81548173ffffffffffffffffffffffffffffffffffffffff021916908373ffffffffffffffffffffffffffffffffffffffff1602179055503480156200009457600080fd5b5060405162006641380380620066418339818101604052810190620000ba919062000450565b6040518060400160405280600881526020017f4d696e694d6963680000000000000000000000000000000000000000000000008152506040518060400160405280600281526020017f4d4d000000000000000000000000000000000000000000000000000000000000815250600d54600a6000811162000171576040517f08c379a0000000000000000000000000000000000000000000000000000000008152600401620001689062000505565b60405180910390fd5b60008211620001b7576040517f08c379a0000000000000000000000000000000000000000000000000000000008152600401620001ae90620004e3565b60405180910390fd5b8360019080519060200190620001cf9291906200032e565b508260029080519060200190620001e89291906200032e565b508160a081815250508060808181525050505050506200021d620002116200026060201b60201c565b6200026860201b60201c565b6000600860146101000a81548160ff021916908315150217905550600160098190555080600a9080519060200190620002589291906200032e565b505062000746565b600033905090565b6000600860009054906101000a900473ffffffffffffffffffffffffffffffffffffffff16905081600860006101000a81548173ffffffffffffffffffffffffffffffffffffffff021916908373ffffffffffffffffffffffffffffffffffffffff1602179055508173ffffffffffffffffffffffffffffffffffffffff168173ffffffffffffffffffffffffffffffffffffffff167f8be0079c531659141344cd1fd0a4f28419497f9722a3daafe3b4186f6b6457e060405160405180910390a35050565b8280546200033c90620005cd565b90600052602060002090601f016020900481019282620003605760008555620003ac565b82601f106200037b57805160ff1916838001178555620003ac565b82800160010185558215620003ac579182015b82811115620003ab5782518255916020019190600101906200038e565b5b509050620003bb9190620003bf565b5090565b5b80821115620003da576000816000905550600101620003c0565b5090565b6000620003f5620003ef8462000550565b62000527565b9050828152602081018484840111156200040e57600080fd5b6200041b84828562000597565b509392505050565b600082601f8301126200043557600080fd5b815162000447848260208601620003de565b91505092915050565b6000602082840312156200046357600080fd5b600082015167ffffffffffffffff8111156200047e57600080fd5b6200048c8482850162000423565b91505092915050565b6000620004a460278362000586565b9150620004b182620006a8565b604082019050919050565b6000620004cb602e8362000586565b9150620004d882620006f7565b604082019050919050565b60006020820190508181036000830152620004fe8162000495565b9050919050565b600060208201905081810360008301526200052081620004bc565b9050919050565b60006200053362000546565b905062000541828262000603565b919050565b6000604051905090565b600067ffffffffffffffff8211156200056e576200056d62000668565b5b620005798262000697565b9050602081019050919050565b600082825260208201905092915050565b60005b83811015620005b75780820151818401526020810190506200059a565b83811115620005c7576000848401525b50505050565b60006002820490506001821680620005e657607f821691505b60208210811415620005fd57620005fc62000639565b5b50919050565b6200060e8262000697565b810181811067ffffffffffffffff8211171562000630576200062f62000668565b5b80604052505050565b7f4e487b7100000000000000000000000000000000000000000000000000000000600052602260045260246000fd5b7f4e487b7100000000000000000000000000000000000000000000000000000000600052604160045260246000fd5b6000601f19601f8301169050919050565b7f455243373231413a206d61782062617463682073697a65206d7573742062652060008201527f6e6f6e7a65726f00000000000000000000000000000000000000000000000000602082015250565b7f455243373231413a20636f6c6c656374696f6e206d757374206861766520612060008201527f6e6f6e7a65726f20737570706c79000000000000000000000000000000000000602082015250565b60805160a051615eca6200077760003960008181612f0601528181612f2f0152613815015260005050615eca6000f3fe6080604052600436106102935760003560e01c80638456cb591161015a578063c7837ef1116100c1578063e985e9c51161007a578063e985e9c5146109ad578063eff31e9e146109ea578063f151d79114610a15578063f2fde38b14610a31578063f95fe25b14610a5a578063ffd31af614610a8357610293565b8063c7837ef114610889578063c793803c146108b4578063c87b56dd146108df578063d36279401461091c578063d7224ba014610945578063dc33e6811461097057610293565b806399464c891161011357806399464c89146107b0578063a0eddf7e146107c7578063a22cb465146107f0578063a70f1fbe14610819578063ab3587df14610844578063b88d4fde1461086057610293565b80638456cb59146106b05780638d859f3e146106c75780638da5cb5b146106f25780639231ab2a1461071d578063950bff9f1461075a57806395d89b411461078557610293565b80634d4c4e99116101fe5780636fdaddf1116101b75780636fdaddf1146105c657806370a08231146105f1578063715018a61461062e57806372954416146106455780637cb64759146106705780637cf0f69b1461069957610293565b80634d4c4e99146104a05780634da95e19146104cb5780634f6ccce7146104f65780635c975abb1461053357806362dc6e211461055e5780636352211e1461058957610293565b806323b872dd1161025057806323b872dd146103ba5780632f745c59146103e3578063375a069a146104205780633a92b81a146104495780633f4ba83a1461046057806342842e0e1461047757610293565b806301ffc9a71461029857806306fdde03146102d5578063081812fc14610300578063095ea7b31461033d578063155dd5ee1461036657806318160ddd1461038f575b600080fd5b3480156102a457600080fd5b506102bf60048036038101906102ba91906141ec565b610aae565b6040516102cc9190614aad565b60405180910390f35b3480156102e157600080fd5b506102ea610bf8565b6040516102f79190614ac8565b60405180910390f35b34801561030c57600080fd5b5061032760048036038101906103229190614283565b610c8a565b6040516103349190614a46565b60405180910390f35b34801561034957600080fd5b50610364600480360381019061035f919061412f565b610d0f565b005b34801561037257600080fd5b5061038d60048036038101906103889190614283565b610e28565b005b34801561039b57600080fd5b506103a4610f8d565b6040516103b19190614fc5565b60405180910390f35b3480156103c657600080fd5b506103e160048036038101906103dc9190614029565b610f96565b005b3480156103ef57600080fd5b5061040a6004803603810190610405919061412f565b610fa6565b6040516104179190614fc5565b60405180910390f35b34801561042c57600080fd5b5061044760048036038101906104429190614283565b6111a4565b005b34801561045557600080fd5b5061045e611307565b005b34801561046c57600080fd5b506104756113af565b005b34801561048357600080fd5b5061049e60048036038101906104999190614029565b611435565b005b3480156104ac57600080fd5b506104b5611455565b6040516104c29190614fc5565b60405180910390f35b3480156104d757600080fd5b506104e061145a565b6040516104ed9190614aad565b60405180910390f35b34801561050257600080fd5b5061051d60048036038101906105189190614283565b61146d565b60405161052a9190614fc5565b60405180910390f35b34801561053f57600080fd5b506105486114c0565b6040516105559190614aad565b60405180910390f35b34801561056a57600080fd5b506105736114d7565b6040516105809190614fc5565b60405180910390f35b34801561059557600080fd5b506105b060048036038101906105ab9190614283565b6114dd565b6040516105bd9190614a46565b60405180910390f35b3480156105d257600080fd5b506105db6114f3565b6040516105e89190614fc5565b60405180910390f35b3480156105fd57600080fd5b5061061860048036038101906106139190613fc4565b6114f8565b6040516106259190614fc5565b60405180910390f35b34801561063a57600080fd5b506106436115e1565b005b34801561065157600080fd5b5061065a611669565b6040516106679190614fc5565b60405180910390f35b34801561067c57600080fd5b50610697600480360381019061069291906141c3565b61166f565b005b3480156106a557600080fd5b506106ae6116f5565b005b3480156106bc57600080fd5b506106c561179d565b005b3480156106d357600080fd5b506106dc611823565b6040516106e99190614fc5565b60405180910390f35b3480156106fe57600080fd5b50610707611829565b6040516107149190614a46565b60405180910390f35b34801561072957600080fd5b50610744600480360381019061073f9190614283565b611853565b6040516107519190614faa565b60405180910390f35b34801561076657600080fd5b5061076f61186b565b60405161077c9190614fc5565b60405180910390f35b34801561079157600080fd5b5061079a611871565b6040516107a79190614ac8565b60405180910390f35b3480156107bc57600080fd5b506107c5611903565b005b3480156107d357600080fd5b506107ee60048036038101906107e9919061423e565b6119f2565b005b3480156107fc57600080fd5b50610817600480360381019061081291906140f3565b611ada565b005b34801561082557600080fd5b5061082e611c5b565b60405161083b9190614fc5565b60405180910390f35b61085e60048036038101906108599190614311565b611c60565b005b34801561086c57600080fd5b5061088760048036038101906108829190614078565b611f0d565b005b34801561089557600080fd5b5061089e611f69565b6040516108ab9190614fc5565b60405180910390f35b3480156108c057600080fd5b506108c9611f6f565b6040516108d69190614aad565b60405180910390f35b3480156108eb57600080fd5b5061090660048036038101906109019190614283565b611f82565b6040516109139190614ac8565b60405180910390f35b34801561092857600080fd5b50610943600480360381019061093e919061416b565b612029565b005b34801561095157600080fd5b5061095a6122ef565b6040516109679190614fc5565b60405180910390f35b34801561097c57600080fd5b5061099760048036038101906109929190613fc4565b6122f5565b6040516109a49190614fc5565b60405180910390f35b3480156109b957600080fd5b506109d460048036038101906109cf9190613fed565b612307565b6040516109e19190614aad565b60405180910390f35b3480156109f657600080fd5b506109ff61239b565b604051610a0c9190614fc5565b60405180910390f35b610a2f6004803603810190610a2a91906142e8565b6123a0565b005b348015610a3d57600080fd5b50610a586004803603810190610a539190613fc4565b612534565b005b348015610a6657600080fd5b50610a816004803603810190610a7c91906142ac565b61262c565b005b348015610a8f57600080fd5b50610a986126f5565b604051610aa59190614aad565b60405180910390f35b60007f80ac58cd000000000000000000000000000000000000000000000000000000007bffffffffffffffffffffffffffffffffffffffffffffffffffffffff1916827bffffffffffffffffffffffffffffffffffffffffffffffffffffffff19161480610b7957507f5b5e139f000000000000000000000000000000000000000000000000000000007bffffffffffffffffffffffffffffffffffffffffffffffffffffffff1916827bffffffffffffffffffffffffffffffffffffffffffffffffffffffff1916145b80610be157507f780e9d63000000000000000000000000000000000000000000000000000000007bffffffffffffffffffffffffffffffffffffffffffffffffffffffff1916827bffffffffffffffffffffffffffffffffffffffffffffffffffffffff1916145b80610bf15750610bf082612708565b5b9050919050565b606060018054610c079061533d565b80601f0160208091040260200160405190810160405280929190818152602001828054610c339061533d565b8015610c805780601f10610c5557610100808354040283529160200191610c80565b820191906000526020600020905b815481529060010190602001808311610c6357829003601f168201915b5050505050905090565b6000610c9582612772565b610cd4576040517f08c379a0000000000000000000000000000000000000000000000000000000008152600401610ccb90614f2a565b60405180910390fd5b6005600083815260200190815260200160002060009054906101000a900473ffffffffffffffffffffffffffffffffffffffff169050919050565b6000610d1a826114dd565b90508073ffffffffffffffffffffffffffffffffffffffff168373ffffffffffffffffffffffffffffffffffffffff161415610d8b576040517f08c379a0000000000000000000000000000000000000000000000000000000008152600401610d8290614dea565b60405180910390fd5b8073ffffffffffffffffffffffffffffffffffffffff16610daa61277f565b73ffffffffffffffffffffffffffffffffffffffff161480610dd95750610dd881610dd361277f565b612307565b5b610e18576040517f08c379a0000000000000000000000000000000000000000000000000000000008152600401610e0f90614c8a565b60405180910390fd5b610e23838383612787565b505050565b610e3061277f565b73ffffffffffffffffffffffffffffffffffffffff16610e4e611829565b73ffffffffffffffffffffffffffffffffffffffff1614610ea4576040517f08c379a0000000000000000000000000000000000000000000000000000000008152600401610e9b90614d2a565b60405180910390fd5b600080821415610eb657479050610eba565b8190505b6000601260009054906101000a900473ffffffffffffffffffffffffffffffffffffffff1673ffffffffffffffffffffffffffffffffffffffff1682604051610f0290614a31565b60006040518083038185875af1925050503d8060008114610f3f576040519150601f19603f3d011682016040523d82523d6000602084013e610f44565b606091505b5050905080610f88576040517f08c379a0000000000000000000000000000000000000000000000000000000008152600401610f7f90614d0a565b60405180910390fd5b505050565b60008054905090565b610fa1838383612839565b505050565b6000610fb1836114f8565b8210610ff2576040517f08c379a0000000000000000000000000000000000000000000000000000000008152600401610fe990614aea565b60405180910390fd5b6000610ffc610f8d565b905060008060005b83811015611162576000600360008381526020019081526020016000206040518060400160405290816000820160009054906101000a900473ffffffffffffffffffffffffffffffffffffffff1673ffffffffffffffffffffffffffffffffffffffff1673ffffffffffffffffffffffffffffffffffffffff1681526020016000820160149054906101000a900467ffffffffffffffff1667ffffffffffffffff1667ffffffffffffffff16815250509050600073ffffffffffffffffffffffffffffffffffffffff16816000015173ffffffffffffffffffffffffffffffffffffffff16146110f657806000015192505b8773ffffffffffffffffffffffffffffffffffffffff168373ffffffffffffffffffffffffffffffffffffffff16141561114e578684141561113f57819550505050505061119e565b838061114a906153a0565b9450505b50808061115a906153a0565b915050611004565b506040517f08c379a000000000000000000000000000000000000000000000000000000000815260040161119590614eca565b60405180910390fd5b92915050565b6111ac61277f565b73ffffffffffffffffffffffffffffffffffffffff166111ca611829565b73ffffffffffffffffffffffffffffffffffffffff1614611220576040517f08c379a000000000000000000000000000000000000000000000000000000000815260040161121790614d2a565b60405180910390fd5b600a8161122b610f8d565b61123591906150ca565b1115611276576040517f08c379a000000000000000000000000000000000000000000000000000000000815260040161126d90614baa565b60405180910390fd5b6000600d5482611286919061543a565b146112c6576040517f08c379a00000000000000000000000000000000000000000000000000000000081526004016112bd90614f4a565b60405180910390fd5b6000600d54826112d69190615120565b905060005b81811015611302576112ef33600d54612df2565b80806112fa906153a0565b9150506112db565b505050565b61130f61277f565b73ffffffffffffffffffffffffffffffffffffffff1661132d611829565b73ffffffffffffffffffffffffffffffffffffffff1614611383576040517f08c379a000000000000000000000000000000000000000000000000000000000815260040161137a90614d2a565b60405180910390fd5b600c60009054906101000a900460ff1615600c60006101000a81548160ff021916908315150217905550565b6113b761277f565b73ffffffffffffffffffffffffffffffffffffffff166113d5611829565b73ffffffffffffffffffffffffffffffffffffffff161461142b576040517f08c379a000000000000000000000000000000000000000000000000000000000815260040161142290614d2a565b60405180910390fd5b611433612e10565b565b61145083838360405180602001604052806000815250611f0d565b505050565b600981565b600c60009054906101000a900460ff1681565b6000611477610f8d565b82106114b8576040517f08c379a00000000000000000000000000000000000000000000000000000000081526004016114af90614bca565b60405180910390fd5b819050919050565b6000600860149054906101000a900460ff16905090565b60115481565b60006114e882612eb2565b600001519050919050565b600a81565b60008073ffffffffffffffffffffffffffffffffffffffff168273ffffffffffffffffffffffffffffffffffffffff161415611569576040517f08c379a000000000000000000000000000000000000000000000000000000000815260040161156090614caa565b60405180910390fd5b600460008373ffffffffffffffffffffffffffffffffffffffff1673ffffffffffffffffffffffffffffffffffffffff16815260200190815260200160002060000160009054906101000a90046fffffffffffffffffffffffffffffffff166fffffffffffffffffffffffffffffffff169050919050565b6115e961277f565b73ffffffffffffffffffffffffffffffffffffffff16611607611829565b73ffffffffffffffffffffffffffffffffffffffff161461165d576040517f08c379a000000000000000000000000000000000000000000000000000000000815260040161165490614d2a565b60405180910390fd5b61166760006130b5565b565b600f5481565b61167761277f565b73ffffffffffffffffffffffffffffffffffffffff16611695611829565b73ffffffffffffffffffffffffffffffffffffffff16146116eb576040517f08c379a00000000000000000000000000000000000000000000000000000000081526004016116e290614d2a565b60405180910390fd5b80600b8190555050565b6116fd61277f565b73ffffffffffffffffffffffffffffffffffffffff1661171b611829565b73ffffffffffffffffffffffffffffffffffffffff1614611771576040517f08c379a000000000000000000000000000000000000000000000000000000000815260040161176890614d2a565b60405180910390fd5b600c60019054906101000a900460ff1615600c60016101000a81548160ff021916908315150217905550565b6117a561277f565b73ffffffffffffffffffffffffffffffffffffffff166117c3611829565b73ffffffffffffffffffffffffffffffffffffffff1614611819576040517f08c379a000000000000000000000000000000000000000000000000000000000815260040161181090614d2a565b60405180910390fd5b61182161317b565b565b60105481565b6000600860009054906101000a900473ffffffffffffffffffffffffffffffffffffffff16905090565b61185b613d0e565b61186482612eb2565b9050919050565b600d5481565b6060600280546118809061533d565b80601f01602080910402602001604051908101604052809291908181526020018280546118ac9061533d565b80156118f95780601f106118ce576101008083540402835291602001916118f9565b820191906000526020600020905b8154815290600101906020018083116118dc57829003601f168201915b5050505050905090565b61190b61277f565b73ffffffffffffffffffffffffffffffffffffffff16611929611829565b73ffffffffffffffffffffffffffffffffffffffff161461197f576040517f08c379a000000000000000000000000000000000000000000000000000000000815260040161197690614d2a565b60405180910390fd5b60001515600c60029054906101000a900460ff161515146119d5576040517f08c379a00000000000000000000000000000000000000000000000000000000081526004016119cc90614b6a565b60405180910390fd5b6001600c60026101000a81548160ff021916908315150217905550565b6119fa61277f565b73ffffffffffffffffffffffffffffffffffffffff16611a18611829565b73ffffffffffffffffffffffffffffffffffffffff1614611a6e576040517f08c379a0000000000000000000000000000000000000000000000000000000008152600401611a6590614d2a565b60405180910390fd5b60001515600c60029054906101000a900460ff16151514611ac4576040517f08c379a0000000000000000000000000000000000000000000000000000000008152600401611abb90614b6a565b60405180910390fd5b8181600a9190611ad5929190613d48565b505050565b611ae261277f565b73ffffffffffffffffffffffffffffffffffffffff168273ffffffffffffffffffffffffffffffffffffffff161415611b50576040517f08c379a0000000000000000000000000000000000000000000000000000000008152600401611b4790614daa565b60405180910390fd5b8060066000611b5d61277f565b73ffffffffffffffffffffffffffffffffffffffff1673ffffffffffffffffffffffffffffffffffffffff16815260200190815260200160002060008473ffffffffffffffffffffffffffffffffffffffff1673ffffffffffffffffffffffffffffffffffffffff16815260200190815260200160002060006101000a81548160ff0219169083151502179055508173ffffffffffffffffffffffffffffffffffffffff16611c0a61277f565b73ffffffffffffffffffffffffffffffffffffffff167f17307eab39ab6107e8899845ad3d59bd9653f200f220920489ca2b5937696c3183604051611c4f9190614aad565b60405180910390a35050565b600281565b60026009541415611ca6576040517f08c379a0000000000000000000000000000000000000000000000000000000008152600401611c9d90614eea565b60405180910390fd5b600260098190555060011515600c60009054906101000a900460ff16151514611d04576040517f08c379a0000000000000000000000000000000000000000000000000000000008152600401611cfb90614d4a565b60405180910390fd5b601154838063ffffffff1682611d1a9190615151565b3414611d5b576040517f08c379a0000000000000000000000000000000000000000000000000000000008152600401611d5290614cca565b60405180910390fd5b611dd6848480806020026020016040519081016040528093929190818152602001838360200280828437600081840152601f19601f82011690508083019250505050505050600b54611dab61277f565b604051602001611dbb91906149f2565b6040516020818303038152906040528051906020012061321e565b611e15576040517f08c379a0000000000000000000000000000000000000000000000000000000008152600401611e0c90614b0a565b60405180910390fd5b60028563ffffffff16611e27336122f5565b611e3191906150ca565b1115611e72576040517f08c379a0000000000000000000000000000000000000000000000000000000008152600401611e6990614c2a565b60405180910390fd5b60098563ffffffff16600f54611e8891906150ca565b10611ec8576040517f08c379a0000000000000000000000000000000000000000000000000000000008152600401611ebf90614f8a565b60405180910390fd5b611edf611ed361277f565b8663ffffffff16612df2565b8463ffffffff16600f6000828254611ef791906150ca565b9250508190555050506001600981905550505050565b611f18848484612839565b611f2484848484613235565b611f63576040517f08c379a0000000000000000000000000000000000000000000000000000000008152600401611f5a90614e2a565b60405180910390fd5b50505050565b600e5481565b600c60029054906101000a900460ff1681565b6060611f8d82612772565b611fcc576040517f08c379a0000000000000000000000000000000000000000000000000000000008152600401611fc390614d6a565b60405180910390fd5b6000611fd66133cc565b90506000815111611ff65760405180602001604052806000815250612021565b806120008461345e565b604051602001612011929190614a0d565b6040516020818303038152906040525b915050919050565b61203161277f565b73ffffffffffffffffffffffffffffffffffffffff1661204f611829565b73ffffffffffffffffffffffffffffffffffffffff16146120a5576040517f08c379a000000000000000000000000000000000000000000000000000000000815260040161209c90614d2a565b60405180910390fd5b600a8163ffffffff16848490506120bc9190615151565b6120c4610f8d565b6120ce91906150ca565b111561210f576040517f08c379a000000000000000000000000000000000000000000000000000000000815260040161210690614e0a565b60405180910390fd5b60098163ffffffff16848490506121269190615151565b600e5461213391906150ca565b1115612174576040517f08c379a000000000000000000000000000000000000000000000000000000000815260040161216b90614eaa565b60405180910390fd5b60005b838390508163ffffffff1610156122c157600073ffffffffffffffffffffffffffffffffffffffff1684848363ffffffff168181106121df577f4e487b7100000000000000000000000000000000000000000000000000000000600052603260045260246000fd5b90506020020160208101906121f49190613fc4565b73ffffffffffffffffffffffffffffffffffffffff16141561224b576040517f08c379a000000000000000000000000000000000000000000000000000000000815260040161224290614d8a565b60405180910390fd5b6122ae84848363ffffffff1681811061228d577f4e487b7100000000000000000000000000000000000000000000000000000000600052603260045260246000fd5b90506020020160208101906122a29190613fc4565b8363ffffffff16612df2565b80806122b9906153e9565b915050612177565b508063ffffffff16838390506122d79190615151565b600e546122e491906150ca565b600e81905550505050565b60075481565b60006123008261360b565b9050919050565b6000600660008473ffffffffffffffffffffffffffffffffffffffff1673ffffffffffffffffffffffffffffffffffffffff16815260200190815260200160002060008373ffffffffffffffffffffffffffffffffffffffff1673ffffffffffffffffffffffffffffffffffffffff16815260200190815260200160002060009054906101000a900460ff16905092915050565b600981565b600260095414156123e6576040517f08c379a00000000000000000000000000000000000000000000000000000000081526004016123dd90614eea565b60405180910390fd5b600260098190555060011515600c60019054906101000a900460ff16151514612444576040517f08c379a000000000000000000000000000000000000000000000000000000000815260040161243b90614e6a565b60405180910390fd5b601054818063ffffffff168261245a9190615151565b341461249b576040517f08c379a000000000000000000000000000000000000000000000000000000000815260040161249290614cca565b60405180910390fd5b600a600e5460098563ffffffff166124b1610f8d565b6124bb91906150ca565b6124c591906150ca565b6124cf91906151df565b1115612510576040517f08c379a000000000000000000000000000000000000000000000000000000000815260040161250790614e0a565b60405180910390fd5b61252761251b61277f565b8463ffffffff16612df2565b5050600160098190555050565b61253c61277f565b73ffffffffffffffffffffffffffffffffffffffff1661255a611829565b73ffffffffffffffffffffffffffffffffffffffff16146125b0576040517f08c379a00000000000000000000000000000000000000000000000000000000081526004016125a790614d2a565b60405180910390fd5b600073ffffffffffffffffffffffffffffffffffffffff168173ffffffffffffffffffffffffffffffffffffffff161415612620576040517f08c379a000000000000000000000000000000000000000000000000000000000815260040161261790614b4a565b60405180910390fd5b612629816130b5565b50565b61263461277f565b73ffffffffffffffffffffffffffffffffffffffff16612652611829565b73ffffffffffffffffffffffffffffffffffffffff16146126a8576040517f08c379a000000000000000000000000000000000000000000000000000000000815260040161269f90614d2a565b60405180910390fd5b60008163ffffffff1614156126d657670de0b6b3a7640000826126cb9190615151565b6010819055506126f1565b670de0b6b3a7640000826126ea9190615151565b6011819055505b5050565b600c60019054906101000a900460ff1681565b60007f01ffc9a7000000000000000000000000000000000000000000000000000000007bffffffffffffffffffffffffffffffffffffffffffffffffffffffff1916827bffffffffffffffffffffffffffffffffffffffffffffffffffffffff1916149050919050565b6000805482109050919050565b600033905090565b826005600084815260200190815260200160002060006101000a81548173ffffffffffffffffffffffffffffffffffffffff021916908373ffffffffffffffffffffffffffffffffffffffff160217905550818373ffffffffffffffffffffffffffffffffffffffff168273ffffffffffffffffffffffffffffffffffffffff167f8c5be1e5ebec7d5bd14f71427d1e84f3dd0314c0f7b2291e5b200ac8c7c3b92560405160405180910390a4505050565b600061284482612eb2565b90506000816000015173ffffffffffffffffffffffffffffffffffffffff1661286b61277f565b73ffffffffffffffffffffffffffffffffffffffff1614806128c7575061289061277f565b73ffffffffffffffffffffffffffffffffffffffff166128af84610c8a565b73ffffffffffffffffffffffffffffffffffffffff16145b806128e357506128e282600001516128dd61277f565b612307565b5b905080612925576040517f08c379a000000000000000000000000000000000000000000000000000000000815260040161291c90614dca565b60405180910390fd5b8473ffffffffffffffffffffffffffffffffffffffff16826000015173ffffffffffffffffffffffffffffffffffffffff1614612997576040517f08c379a000000000000000000000000000000000000000000000000000000000815260040161298e90614cea565b60405180910390fd5b600073ffffffffffffffffffffffffffffffffffffffff168473ffffffffffffffffffffffffffffffffffffffff161415612a07576040517f08c379a00000000000000000000000000000000000000000000000000000000081526004016129fe90614bea565b60405180910390fd5b612a1485858560016136f4565b612a246000848460000151612787565b6001600460008773ffffffffffffffffffffffffffffffffffffffff1673ffffffffffffffffffffffffffffffffffffffff16815260200190815260200160002060000160008282829054906101000a90046fffffffffffffffffffffffffffffffff16612a9291906151ab565b92506101000a8154816fffffffffffffffffffffffffffffffff02191690836fffffffffffffffffffffffffffffffff1602179055506001600460008673ffffffffffffffffffffffffffffffffffffffff1673ffffffffffffffffffffffffffffffffffffffff16815260200190815260200160002060000160008282829054906101000a90046fffffffffffffffffffffffffffffffff16612b369190615084565b92506101000a8154816fffffffffffffffffffffffffffffffff02191690836fffffffffffffffffffffffffffffffff16021790555060405180604001604052808573ffffffffffffffffffffffffffffffffffffffff1681526020014267ffffffffffffffff168152506003600085815260200190815260200160002060008201518160000160006101000a81548173ffffffffffffffffffffffffffffffffffffffff021916908373ffffffffffffffffffffffffffffffffffffffff16021790555060208201518160000160146101000a81548167ffffffffffffffff021916908367ffffffffffffffff1602179055509050506000600184612c3c91906150ca565b9050600073ffffffffffffffffffffffffffffffffffffffff166003600083815260200190815260200160002060000160009054906101000a900473ffffffffffffffffffffffffffffffffffffffff1673ffffffffffffffffffffffffffffffffffffffff161415612d8257612cb281612772565b15612d81576040518060400160405280846000015173ffffffffffffffffffffffffffffffffffffffff168152602001846020015167ffffffffffffffff168152506003600083815260200190815260200160002060008201518160000160006101000a81548173ffffffffffffffffffffffffffffffffffffffff021916908373ffffffffffffffffffffffffffffffffffffffff16021790555060208201518160000160146101000a81548167ffffffffffffffff021916908367ffffffffffffffff1602179055509050505b5b838573ffffffffffffffffffffffffffffffffffffffff168773ffffffffffffffffffffffffffffffffffffffff167fddf252ad1be2c89b69c2b068fc378daa952ba7f163c4a11628f55a4df523b3ef60405160405180910390a4612dea868686600161374e565b505050505050565b612e0c828260405180602001604052806000815250613754565b5050565b612e186114c0565b612e57576040517f08c379a0000000000000000000000000000000000000000000000000000000008152600401612e4e90614b2a565b60405180910390fd5b6000600860146101000a81548160ff0219169083151502179055507f5db9ee0a495bf2e6ff9c91a7834c1ba4fdd244a5e8aa4e537bd38aeae4b073aa612e9b61277f565b604051612ea89190614a46565b60405180910390a1565b612eba613d0e565b612ec382612772565b612f02576040517f08c379a0000000000000000000000000000000000000000000000000000000008152600401612ef990614b8a565b60405180910390fd5b60007f00000000000000000000000000000000000000000000000000000000000000008310612f665760017f000000000000000000000000000000000000000000000000000000000000000084612f5991906151df565b612f6391906150ca565b90505b60008390505b818110613074576000600360008381526020019081526020016000206040518060400160405290816000820160009054906101000a900473ffffffffffffffffffffffffffffffffffffffff1673ffffffffffffffffffffffffffffffffffffffff1673ffffffffffffffffffffffffffffffffffffffff1681526020016000820160149054906101000a900467ffffffffffffffff1667ffffffffffffffff1667ffffffffffffffff16815250509050600073ffffffffffffffffffffffffffffffffffffffff16816000015173ffffffffffffffffffffffffffffffffffffffff1614613060578093505050506130b0565b50808061306c90615313565b915050612f6c565b506040517f08c379a00000000000000000000000000000000000000000000000000000000081526004016130a790614f0a565b60405180910390fd5b919050565b6000600860009054906101000a900473ffffffffffffffffffffffffffffffffffffffff16905081600860006101000a81548173ffffffffffffffffffffffffffffffffffffffff021916908373ffffffffffffffffffffffffffffffffffffffff1602179055508173ffffffffffffffffffffffffffffffffffffffff168173ffffffffffffffffffffffffffffffffffffffff167f8be0079c531659141344cd1fd0a4f28419497f9722a3daafe3b4186f6b6457e060405160405180910390a35050565b6131836114c0565b156131c3576040517f08c379a00000000000000000000000000000000000000000000000000000000081526004016131ba90614c4a565b60405180910390fd5b6001600860146101000a81548160ff0219169083151502179055507f62e78cea01bee320cd4e420270b5ea74000d11b0c9f74754ebdbfc544b05a25861320761277f565b6040516132149190614a46565b60405180910390a1565b60008261322b8584613c33565b1490509392505050565b60006132568473ffffffffffffffffffffffffffffffffffffffff16613cce565b156133bf578373ffffffffffffffffffffffffffffffffffffffff1663150b7a0261327f61277f565b8786866040518563ffffffff1660e01b81526004016132a19493929190614a61565b602060405180830381600087803b1580156132bb57600080fd5b505af19250505080156132ec57506040513d601f19601f820116820180604052508101906132e99190614215565b60015b61336f573d806000811461331c576040519150601f19603f3d011682016040523d82523d6000602084013e613321565b606091505b50600081511415613367576040517f08c379a000000000000000000000000000000000000000000000000000000000815260040161335e90614e2a565b60405180910390fd5b805181602001fd5b63150b7a0260e01b7bffffffffffffffffffffffffffffffffffffffffffffffffffffffff1916817bffffffffffffffffffffffffffffffffffffffffffffffffffffffff1916149150506133c4565b600190505b949350505050565b6060600a80546133db9061533d565b80601f01602080910402602001604051908101604052809291908181526020018280546134079061533d565b80156134545780601f1061342957610100808354040283529160200191613454565b820191906000526020600020905b81548152906001019060200180831161343757829003601f168201915b5050505050905090565b606060008214156134a6576040518060400160405280600181526020017f30000000000000000000000000000000000000000000000000000000000000008152509050613606565b600082905060005b600082146134d85780806134c1906153a0565b915050600a826134d19190615120565b91506134ae565b60008167ffffffffffffffff81111561351a577f4e487b7100000000000000000000000000000000000000000000000000000000600052604160045260246000fd5b6040519080825280601f01601f19166020018201604052801561354c5781602001600182028036833780820191505090505b5090505b600085146135ff5760018261356591906151df565b9150600a85613574919061543a565b603061358091906150ca565b60f81b8183815181106135bc577f4e487b7100000000000000000000000000000000000000000000000000000000600052603260045260246000fd5b60200101907effffffffffffffffffffffffffffffffffffffffffffffffffffffffffffff1916908160001a905350600a856135f89190615120565b9450613550565b8093505050505b919050565b60008073ffffffffffffffffffffffffffffffffffffffff168273ffffffffffffffffffffffffffffffffffffffff16141561367c576040517f08c379a000000000000000000000000000000000000000000000000000000000815260040161367390614c0a565b60405180910390fd5b600460008373ffffffffffffffffffffffffffffffffffffffff1673ffffffffffffffffffffffffffffffffffffffff16815260200190815260200160002060000160109054906101000a90046fffffffffffffffffffffffffffffffff166fffffffffffffffffffffffffffffffff169050919050565b6136fc6114c0565b1561373c576040517f08c379a000000000000000000000000000000000000000000000000000000000815260040161373390614c6a565b60405180910390fd5b61374884848484613cf1565b50505050565b50505050565b600080549050600073ffffffffffffffffffffffffffffffffffffffff168473ffffffffffffffffffffffffffffffffffffffff1614156137ca576040517f08c379a00000000000000000000000000000000000000000000000000000000081526004016137c190614e8a565b60405180910390fd5b6137d381612772565b15613813576040517f08c379a000000000000000000000000000000000000000000000000000000000815260040161380a90614e4a565b60405180910390fd5b7f0000000000000000000000000000000000000000000000000000000000000000831115613876576040517f08c379a000000000000000000000000000000000000000000000000000000000815260040161386d90614f6a565b60405180910390fd5b61388360008583866136f4565b6000600460008673ffffffffffffffffffffffffffffffffffffffff1673ffffffffffffffffffffffffffffffffffffffff1681526020019081526020016000206040518060400160405290816000820160009054906101000a90046fffffffffffffffffffffffffffffffff166fffffffffffffffffffffffffffffffff166fffffffffffffffffffffffffffffffff1681526020016000820160109054906101000a90046fffffffffffffffffffffffffffffffff166fffffffffffffffffffffffffffffffff166fffffffffffffffffffffffffffffffff1681525050905060405180604001604052808583600001516139809190615084565b6fffffffffffffffffffffffffffffffff1681526020018583602001516139a79190615084565b6fffffffffffffffffffffffffffffffff16815250600460008773ffffffffffffffffffffffffffffffffffffffff1673ffffffffffffffffffffffffffffffffffffffff16815260200190815260200160002060008201518160000160006101000a8154816fffffffffffffffffffffffffffffffff02191690836fffffffffffffffffffffffffffffffff16021790555060208201518160000160106101000a8154816fffffffffffffffffffffffffffffffff02191690836fffffffffffffffffffffffffffffffff16021790555090505060405180604001604052808673ffffffffffffffffffffffffffffffffffffffff1681526020014267ffffffffffffffff168152506003600084815260200190815260200160002060008201518160000160006101000a81548173ffffffffffffffffffffffffffffffffffffffff021916908373ffffffffffffffffffffffffffffffffffffffff16021790555060208201518160000160146101000a81548167ffffffffffffffff021916908367ffffffffffffffff160217905550905050600082905060005b85811015613c1657818773ffffffffffffffffffffffffffffffffffffffff16600073ffffffffffffffffffffffffffffffffffffffff167fddf252ad1be2c89b69c2b068fc378daa952ba7f163c4a11628f55a4df523b3ef60405160405180910390a4613bb66000888488613235565b613bf5576040517f08c379a0000000000000000000000000000000000000000000000000000000008152600401613bec90614e2a565b60405180910390fd5b8180613c00906153a0565b9250508080613c0e906153a0565b915050613b45565b5080600081905550613c2b600087858861374e565b505050505050565b60008082905060005b8451811015613cc3576000858281518110613c80577f4e487b7100000000000000000000000000000000000000000000000000000000600052603260045260246000fd5b60200260200101519050808311613ca257613c9b8382613cf7565b9250613caf565b613cac8184613cf7565b92505b508080613cbb906153a0565b915050613c3c565b508091505092915050565b6000808273ffffffffffffffffffffffffffffffffffffffff163b119050919050565b50505050565b600082600052816020526040600020905092915050565b6040518060400160405280600073ffffffffffffffffffffffffffffffffffffffff168152602001600067ffffffffffffffff1681525090565b828054613d549061533d565b90600052602060002090601f016020900481019282613d765760008555613dbd565b82601f10613d8f57803560ff1916838001178555613dbd565b82800160010185558215613dbd579182015b82811115613dbc578235825591602001919060010190613da1565b5b509050613dca9190613dce565b5090565b5b80821115613de7576000816000905550600101613dcf565b5090565b6000613dfe613df984615005565b614fe0565b905082815260208101848484011115613e1657600080fd5b613e218482856152d1565b509392505050565b600081359050613e3881615e0a565b92915050565b60008083601f840112613e5057600080fd5b8235905067ffffffffffffffff811115613e6957600080fd5b602083019150836020820283011115613e8157600080fd5b9250929050565b60008083601f840112613e9a57600080fd5b8235905067ffffffffffffffff811115613eb357600080fd5b602083019150836020820283011115613ecb57600080fd5b9250929050565b600081359050613ee181615e21565b92915050565b600081359050613ef681615e38565b92915050565b600081359050613f0b81615e4f565b92915050565b600081519050613f2081615e4f565b92915050565b600082601f830112613f3757600080fd5b8135613f47848260208601613deb565b91505092915050565b60008083601f840112613f6257600080fd5b8235905067ffffffffffffffff811115613f7b57600080fd5b602083019150836001820283011115613f9357600080fd5b9250929050565b600081359050613fa981615e66565b92915050565b600081359050613fbe81615e7d565b92915050565b600060208284031215613fd657600080fd5b6000613fe484828501613e29565b91505092915050565b6000806040838503121561400057600080fd5b600061400e85828601613e29565b925050602061401f85828601613e29565b9150509250929050565b60008060006060848603121561403e57600080fd5b600061404c86828701613e29565b935050602061405d86828701613e29565b925050604061406e86828701613f9a565b9150509250925092565b6000806000806080858703121561408e57600080fd5b600061409c87828801613e29565b94505060206140ad87828801613e29565b93505060406140be87828801613f9a565b925050606085013567ffffffffffffffff8111156140db57600080fd5b6140e787828801613f26565b91505092959194509250565b6000806040838503121561410657600080fd5b600061411485828601613e29565b925050602061412585828601613ed2565b9150509250929050565b6000806040838503121561414257600080fd5b600061415085828601613e29565b925050602061416185828601613f9a565b9150509250929050565b60008060006040848603121561418057600080fd5b600084013567ffffffffffffffff81111561419a57600080fd5b6141a686828701613e3e565b935093505060206141b986828701613faf565b9150509250925092565b6000602082840312156141d557600080fd5b60006141e384828501613ee7565b91505092915050565b6000602082840312156141fe57600080fd5b600061420c84828501613efc565b91505092915050565b60006020828403121561422757600080fd5b600061423584828501613f11565b91505092915050565b6000806020838503121561425157600080fd5b600083013567ffffffffffffffff81111561426b57600080fd5b61427785828601613f50565b92509250509250929050565b60006020828403121561429557600080fd5b60006142a384828501613f9a565b91505092915050565b600080604083850312156142bf57600080fd5b60006142cd85828601613f9a565b92505060206142de85828601613faf565b9150509250929050565b6000602082840312156142fa57600080fd5b600061430884828501613faf565b91505092915050565b60008060006040848603121561432657600080fd5b600061433486828701613faf565b935050602084013567ffffffffffffffff81111561435157600080fd5b61435d86828701613e88565b92509250509250925092565b61437281615213565b82525050565b61438181615213565b82525050565b61439861439382615213565b615416565b82525050565b6143a781615225565b82525050565b60006143b882615036565b6143c2818561504c565b93506143d28185602086016152e0565b6143db81615527565b840191505092915050565b60006143f182615041565b6143fb8185615068565b935061440b8185602086016152e0565b61441481615527565b840191505092915050565b600061442a82615041565b6144348185615079565b93506144448185602086016152e0565b80840191505092915050565b600061445d602283615068565b915061446882615545565b604082019050919050565b6000614480601083615068565b915061448b82615594565b602082019050919050565b60006144a3601483615068565b91506144ae826155bd565b602082019050919050565b60006144c6602683615068565b91506144d1826155e6565b604082019050919050565b60006144e9601283615068565b91506144f482615635565b602082019050919050565b600061450c602a83615068565b91506145178261565e565b604082019050919050565b600061452f601083615068565b915061453a826156ad565b602082019050919050565b6000614552602383615068565b915061455d826156d6565b604082019050919050565b6000614575602583615068565b915061458082615725565b604082019050919050565b6000614598603183615068565b91506145a382615774565b604082019050919050565b60006145bb601583615068565b91506145c6826157c3565b602082019050919050565b60006145de601083615068565b91506145e9826157ec565b602082019050919050565b6000614601601883615068565b915061460c82615815565b602082019050919050565b6000614624603983615068565b915061462f8261583e565b604082019050919050565b6000614647602b83615068565b91506146528261588d565b604082019050919050565b600061466a600e83615068565b9150614675826158dc565b602082019050919050565b600061468d602683615068565b915061469882615905565b604082019050919050565b60006146b0601683615068565b91506146bb82615954565b602082019050919050565b60006146d3602083615068565b91506146de8261597d565b602082019050919050565b60006146f6601783615068565b9150614701826159a6565b602082019050919050565b6000614719602f83615068565b9150614724826159cf565b604082019050919050565b600061473c600c83615068565b915061474782615a1e565b602082019050919050565b600061475f601a83615068565b915061476a82615a47565b602082019050919050565b6000614782603283615068565b915061478d82615a70565b604082019050919050565b60006147a5602283615068565b91506147b082615abf565b604082019050919050565b60006147c860008361505d565b91506147d382615b0e565b600082019050919050565b60006147eb600883615068565b91506147f682615b11565b602082019050919050565b600061480e603383615068565b915061481982615b3a565b604082019050919050565b6000614831601d83615068565b915061483c82615b89565b602082019050919050565b6000614854601483615068565b915061485f82615bb2565b602082019050919050565b6000614877602183615068565b915061488282615bdb565b604082019050919050565b600061489a601383615068565b91506148a582615c2a565b602082019050919050565b60006148bd602e83615068565b91506148c882615c53565b604082019050919050565b60006148e0601f83615068565b91506148eb82615ca2565b602082019050919050565b6000614903602f83615068565b915061490e82615ccb565b604082019050919050565b6000614926602d83615068565b915061493182615d1a565b604082019050919050565b6000614949601983615068565b915061495482615d69565b602082019050919050565b600061496c602283615068565b915061497782615d92565b604082019050919050565b600061498f601583615068565b915061499a82615de1565b602082019050919050565b6040820160008201516149bb6000850182614369565b5060208201516149ce60208501826149e3565b50505050565b6149dd816152a3565b82525050565b6149ec816152bd565b82525050565b60006149fe8284614387565b60148201915081905092915050565b6000614a19828561441f565b9150614a25828461441f565b91508190509392505050565b6000614a3c826147bb565b9150819050919050565b6000602082019050614a5b6000830184614378565b92915050565b6000608082019050614a766000830187614378565b614a836020830186614378565b614a9060408301856149d4565b8181036060830152614aa281846143ad565b905095945050505050565b6000602082019050614ac2600083018461439e565b92915050565b60006020820190508181036000830152614ae281846143e6565b905092915050565b60006020820190508181036000830152614b0381614450565b9050919050565b60006020820190508181036000830152614b2381614473565b9050919050565b60006020820190508181036000830152614b4381614496565b9050919050565b60006020820190508181036000830152614b63816144b9565b9050919050565b60006020820190508181036000830152614b83816144dc565b9050919050565b60006020820190508181036000830152614ba3816144ff565b9050919050565b60006020820190508181036000830152614bc381614522565b9050919050565b60006020820190508181036000830152614be381614545565b9050919050565b60006020820190508181036000830152614c0381614568565b9050919050565b60006020820190508181036000830152614c238161458b565b9050919050565b60006020820190508181036000830152614c43816145ae565b9050919050565b60006020820190508181036000830152614c63816145d1565b9050919050565b60006020820190508181036000830152614c83816145f4565b9050919050565b60006020820190508181036000830152614ca381614617565b9050919050565b60006020820190508181036000830152614cc38161463a565b9050919050565b60006020820190508181036000830152614ce38161465d565b9050919050565b60006020820190508181036000830152614d0381614680565b9050919050565b60006020820190508181036000830152614d23816146a3565b9050919050565b60006020820190508181036000830152614d43816146c6565b9050919050565b60006020820190508181036000830152614d63816146e9565b9050919050565b60006020820190508181036000830152614d838161470c565b9050919050565b60006020820190508181036000830152614da38161472f565b9050919050565b60006020820190508181036000830152614dc381614752565b9050919050565b60006020820190508181036000830152614de381614775565b9050919050565b60006020820190508181036000830152614e0381614798565b9050919050565b60006020820190508181036000830152614e23816147de565b9050919050565b60006020820190508181036000830152614e4381614801565b9050919050565b60006020820190508181036000830152614e6381614824565b9050919050565b60006020820190508181036000830152614e8381614847565b9050919050565b60006020820190508181036000830152614ea38161486a565b9050919050565b60006020820190508181036000830152614ec38161488d565b9050919050565b60006020820190508181036000830152614ee3816148b0565b9050919050565b60006020820190508181036000830152614f03816148d3565b9050919050565b60006020820190508181036000830152614f23816148f6565b9050919050565b60006020820190508181036000830152614f4381614919565b9050919050565b60006020820190508181036000830152614f638161493c565b9050919050565b60006020820190508181036000830152614f838161495f565b9050919050565b60006020820190508181036000830152614fa381614982565b9050919050565b6000604082019050614fbf60008301846149a5565b92915050565b6000602082019050614fda60008301846149d4565b92915050565b6000614fea614ffb565b9050614ff6828261536f565b919050565b6000604051905090565b600067ffffffffffffffff8211156150205761501f6154f8565b5b61502982615527565b9050602081019050919050565b600081519050919050565b600081519050919050565b600082825260208201905092915050565b600081905092915050565b600082825260208201905092915050565b600081905092915050565b600061508f82615267565b915061509a83615267565b9250826fffffffffffffffffffffffffffffffff038211156150bf576150be61546b565b5b828201905092915050565b60006150d5826152a3565b91506150e0836152a3565b9250827fffffffffffffffffffffffffffffffffffffffffffffffffffffffffffffffff038211156151155761511461546b565b5b828201905092915050565b600061512b826152a3565b9150615136836152a3565b9250826151465761514561549a565b5b828204905092915050565b600061515c826152a3565b9150615167836152a3565b9250817fffffffffffffffffffffffffffffffffffffffffffffffffffffffffffffffff04831182151516156151a05761519f61546b565b5b828202905092915050565b60006151b682615267565b91506151c183615267565b9250828210156151d4576151d361546b565b5b828203905092915050565b60006151ea826152a3565b91506151f5836152a3565b9250828210156152085761520761546b565b5b828203905092915050565b600061521e82615283565b9050919050565b60008115159050919050565b6000819050919050565b60007fffffffff0000000000000000000000000000000000000000000000000000000082169050919050565b60006fffffffffffffffffffffffffffffffff82169050919050565b600073ffffffffffffffffffffffffffffffffffffffff82169050919050565b6000819050919050565b600063ffffffff82169050919050565b600067ffffffffffffffff82169050919050565b82818337600083830152505050565b60005b838110156152fe5780820151818401526020810190506152e3565b8381111561530d576000848401525b50505050565b600061531e826152a3565b915060008214156153325761533161546b565b5b600182039050919050565b6000600282049050600182168061535557607f821691505b60208210811415615369576153686154c9565b5b50919050565b61537882615527565b810181811067ffffffffffffffff82111715615397576153966154f8565b5b80604052505050565b60006153ab826152a3565b91507fffffffffffffffffffffffffffffffffffffffffffffffffffffffffffffffff8214156153de576153dd61546b565b5b600182019050919050565b60006153f4826152ad565b915063ffffffff82141561540b5761540a61546b565b5b600182019050919050565b600061542182615428565b9050919050565b600061543382615538565b9050919050565b6000615445826152a3565b9150615450836152a3565b9250826154605761545f61549a565b5b828206905092915050565b7f4e487b7100000000000000000000000000000000000000000000000000000000600052601160045260246000fd5b7f4e487b7100000000000000000000000000000000000000000000000000000000600052601260045260246000fd5b7f4e487b7100000000000000000000000000000000000000000000000000000000600052602260045260246000fd5b7f4e487b7100000000000000000000000000000000000000000000000000000000600052604160045260246000fd5b6000601f19601f8301169050919050565b60008160601b9050919050565b7f455243373231413a206f776e657220696e646578206f7574206f6620626f756e60008201527f6473000000000000000000000000000000000000000000000000000000000000602082015250565b7f4e6f74206f6e2077686974656c69737400000000000000000000000000000000600082015250565b7f5061757361626c653a206e6f7420706175736564000000000000000000000000600082015250565b7f4f776e61626c653a206e6577206f776e657220697320746865207a65726f206160008201527f6464726573730000000000000000000000000000000000000000000000000000602082015250565b7f4d657461646174612069732066726f7a656e0000000000000000000000000000600082015250565b7f455243373231413a206f776e657220717565727920666f72206e6f6e6578697360008201527f74656e7420746f6b656e00000000000000000000000000000000000000000000602082015250565b7f4465762072656163686573206d696e7400000000000000000000000000000000600082015250565b7f455243373231413a20676c6f62616c20696e646578206f7574206f6620626f7560008201527f6e64730000000000000000000000000000000000000000000000000000000000602082015250565b7f455243373231413a207472616e7366657220746f20746865207a65726f20616460008201527f6472657373000000000000000000000000000000000000000000000000000000602082015250565b7f455243373231413a206e756d626572206d696e74656420717565727920666f7260008201527f20746865207a65726f2061646472657373000000000000000000000000000000602082015250565b7f526561636865732077616c6c6574206c696d69742e0000000000000000000000600082015250565b7f5061757361626c653a2070617573656400000000000000000000000000000000600082015250565b7f436f6e747261637420686173206265656e207061757365640000000000000000600082015250565b7f455243373231413a20617070726f76652063616c6c6572206973206e6f74206f60008201527f776e6572206e6f7220617070726f76656420666f7220616c6c00000000000000602082015250565b7f455243373231413a2062616c616e636520717565727920666f7220746865207a60008201527f65726f2061646472657373000000000000000000000000000000000000000000602082015250565b7f5061796d656e74206661696c6564000000000000000000000000000000000000600082015250565b7f455243373231413a207472616e736665722066726f6d20696e636f727265637460008201527f206f776e65720000000000000000000000000000000000000000000000000000602082015250565b7f4661696c656420746f2073656e64207061796d656e7400000000000000000000600082015250565b7f4f776e61626c653a2063616c6c6572206973206e6f7420746865206f776e6572600082015250565b7f50726573616c65206973206e6f74206c69766520796574000000000000000000600082015250565b7f4552433732314d657461646174613a2055524920717565727920666f72206e6f60008201527f6e6578697374656e7420746f6b656e0000000000000000000000000000000000602082015250565b7f7a65726f20616464726573730000000000000000000000000000000000000000600082015250565b7f455243373231413a20617070726f766520746f2063616c6c6572000000000000600082015250565b7f455243373231413a207472616e736665722063616c6c6572206973206e6f742060008201527f6f776e6572206e6f7220617070726f7665640000000000000000000000000000602082015250565b7f455243373231413a20617070726f76616c20746f2063757272656e74206f776e60008201527f6572000000000000000000000000000000000000000000000000000000000000602082015250565b50565b7f536f6c64206f7574000000000000000000000000000000000000000000000000600082015250565b7f455243373231413a207472616e7366657220746f206e6f6e204552433732315260008201527f6563656976657220696d706c656d656e74657200000000000000000000000000602082015250565b7f455243373231413a20746f6b656e20616c7265616479206d696e746564000000600082015250565b7f53616c65206973206e6f74206c69766520796574000000000000000000000000600082015250565b7f455243373231413a206d696e7420746f20746865207a65726f2061646472657360008201527f7300000000000000000000000000000000000000000000000000000000000000602082015250565b7f52656163682072657365727665206c696d697400000000000000000000000000600082015250565b7f455243373231413a20756e61626c6520746f2067657420746f6b656e206f662060008201527f6f776e657220627920696e646578000000000000000000000000000000000000602082015250565b7f5265656e7472616e637947756172643a207265656e7472616e742063616c6c00600082015250565b7f455243373231413a20756e61626c6520746f2064657465726d696e652074686560008201527f206f776e6572206f6620746f6b656e0000000000000000000000000000000000602082015250565b7f455243373231413a20617070726f76656420717565727920666f72206e6f6e6560008201527f78697374656e7420746f6b656e00000000000000000000000000000000000000602082015250565b7f4d756c7469706c65206f6620746865204d41585f424154434800000000000000600082015250565b7f455243373231413a207175616e7469747920746f206d696e7420746f6f20686960008201527f6768000000000000000000000000000000000000000000000000000000000000602082015250565b7f50726573616c652072656163686573206c696d69740000000000000000000000600082015250565b615e1381615213565b8114615e1e57600080fd5b50565b615e2a81615225565b8114615e3557600080fd5b50565b615e4181615231565b8114615e4c57600080fd5b50565b615e588161523b565b8114615e6357600080fd5b50565b615e6f816152a3565b8114615e7a57600080fd5b50565b615e86816152ad565b8114615e9157600080fd5b5056fea264697066735822122021b14649d59b477e9516b05a22b0a29c55a532734b0f4c418f5294dfec93365a64736f6c63430008020033",
  "linkReferences": {},
  "deployedLinkReferences": {}
}